{
  "_format": "hh-sol-artifact-1",
  "contractName": "Bank",
  "sourceName": "contracts/BankContract.sol",
  "abi": [
    {
      "inputs": [],
      "stateMutability": "nonpayable",
      "type": "constructor"
    },
    {
      "inputs": [],
      "name": "bankName",
      "outputs": [
        {
          "internalType": "string",
          "name": "",
          "type": "string"
        }
      ],
      "stateMutability": "view",
      "type": "function"
    },
    {
      "inputs": [],
      "name": "bankOwner",
      "outputs": [
        {
          "internalType": "address",
          "name": "",
          "type": "address"
        }
      ],
      "stateMutability": "view",
      "type": "function"
    },
    {
      "inputs": [
        {
          "internalType": "address",
          "name": "",
          "type": "address"
        }
      ],
      "name": "customerBalance",
      "outputs": [
        {
          "internalType": "uint256",
          "name": "",
          "type": "uint256"
        }
      ],
      "stateMutability": "view",
      "type": "function"
    },
    {
      "inputs": [],
      "name": "depositMoney",
      "outputs": [],
      "stateMutability": "payable",
      "type": "function"
    },
    {
      "inputs": [],
      "name": "getBankbalance",
      "outputs": [
        {
          "internalType": "uint256",
          "name": "",
          "type": "uint256"
        }
      ],
      "stateMutability": "view",
      "type": "function"
    },
    {
      "inputs": [],
      "name": "getCustomerBalance",
      "outputs": [
        {
          "internalType": "uint256",
          "name": "",
          "type": "uint256"
        }
      ],
      "stateMutability": "view",
      "type": "function"
    },
    {
      "inputs": [
        {
          "internalType": "string",
          "name": "_name",
          "type": "string"
        }
      ],
      "name": "setBankName",
      "outputs": [],
      "stateMutability": "nonpayable",
      "type": "function"
    },
    {
      "inputs": [
        {
          "internalType": "address payable",
          "name": "_to",
          "type": "address"
        },
        {
          "internalType": "uint256",
          "name": "_total",
          "type": "uint256"
        }
      ],
      "name": "withdrawMoney",
      "outputs": [],
      "stateMutability": "nonpayable",
      "type": "function"
    }
  ],
  "bytecode": "0x608060405234801561001057600080fd5b50336000806101000a81548173ffffffffffffffffffffffffffffffffffffffff021916908373ffffffffffffffffffffffffffffffffffffffff160217905550610e6d806100606000396000f3fe60806040526004361061007b5760003560e01c80637c9638ac1161004e5780637c9638ac1461011b578063a853409a14610146578063e147aaa714610171578063f274c8971461019c5761007b565b806316c05aa21461008057806327d358011461008a57806337ebe47b146100b557806370142690146100f2575b600080fd5b6100886101c5565b005b34801561009657600080fd5b5061009f610261565b6040516100ac9190610aa3565b60405180910390f35b3480156100c157600080fd5b506100dc60048036038101906100d79190610784565b6102ef565b6040516100e99190610b65565b60405180910390f35b3480156100fe57600080fd5b50610119600480360381019061011491906107e9565b610307565b005b34801561012757600080fd5b506101306103af565b60405161013d9190610b65565b60405180910390f35b34801561015257600080fd5b5061015b610446565b6040516101689190610b65565b60405180910390f35b34801561017d57600080fd5b5061018661048d565b6040516101939190610a88565b60405180910390f35b3480156101a857600080fd5b506101c360048036038101906101be91906107ad565b6104b1565b005b6000341415610209576040517f08c379a000000000000000000000000000000000000000000000000000000000815260040161020090610b45565b60405180910390fd5b34600260003373ffffffffffffffffffffffffffffffffffffffff1673ffffffffffffffffffffffffffffffffffffffff16815260200190815260200160002060008282546102589190610c08565b92505081905550565b6001805461026e90610d22565b80601f016020809104026020016040519081016040528092919081815260200182805461029a90610d22565b80156102e75780601f106102bc576101008083540402835291602001916102e7565b820191906000526020600020905b8154815290600101906020018083116102ca57829003601f168201915b505050505081565b60026020528060005260406000206000915090505481565b60008054906101000a900473ffffffffffffffffffffffffffffffffffffffff1673ffffffffffffffffffffffffffffffffffffffff163373ffffffffffffffffffffffffffffffffffffffff1614610395576040517f08c379a000000000000000000000000000000000000000000000000000000000815260040161038c90610b25565b60405180910390fd5b80600190805190602001906103ab92919061063a565b5050565b60008060009054906101000a900473ffffffffffffffffffffffffffffffffffffffff1673ffffffffffffffffffffffffffffffffffffffff163373ffffffffffffffffffffffffffffffffffffffff1614610440576040517f08c379a000000000000000000000000000000000000000000000000000000000815260040161043790610ae5565b60405180910390fd5b47905090565b6000600260003373ffffffffffffffffffffffffffffffffffffffff1673ffffffffffffffffffffffffffffffffffffffff16815260200190815260200160002054905090565b60008054906101000a900473ffffffffffffffffffffffffffffffffffffffff1681565b600260003373ffffffffffffffffffffffffffffffffffffffff1673ffffffffffffffffffffffffffffffffffffffff16815260200190815260200160002054811115610533576040517f08c379a000000000000000000000000000000000000000000000000000000000815260040161052a90610ac5565b60405180910390fd5b80600260003373ffffffffffffffffffffffffffffffffffffffff1673ffffffffffffffffffffffffffffffffffffffff16815260200190815260200160002060008282546105829190610c5e565b9250508190555060008273ffffffffffffffffffffffffffffffffffffffff16826040516105af90610a73565b60006040518083038185875af1925050503d80600081146105ec576040519150601f19603f3d011682016040523d82523d6000602084013e6105f1565b606091505b5050905080610635576040517f08c379a000000000000000000000000000000000000000000000000000000000815260040161062c90610b05565b60405180910390fd5b505050565b82805461064690610d22565b90600052602060002090601f01602090048101928261066857600085556106af565b82601f1061068157805160ff19168380011785556106af565b828001600101855582156106af579182015b828111156106ae578251825591602001919060010190610693565b5b5090506106bc91906106c0565b5090565b5b808211156106d95760008160009055506001016106c1565b5090565b60006106f06106eb84610bb1565b610b80565b90508281526020810184848401111561070857600080fd5b610713848285610ce0565b509392505050565b60008135905061072a81610df2565b92915050565b60008135905061073f81610e09565b92915050565b600082601f83011261075657600080fd5b81356107668482602086016106dd565b91505092915050565b60008135905061077e81610e20565b92915050565b60006020828403121561079657600080fd5b60006107a48482850161071b565b91505092915050565b600080604083850312156107c057600080fd5b60006107ce85828601610730565b92505060206107df8582860161076f565b9150509250929050565b6000602082840312156107fb57600080fd5b600082013567ffffffffffffffff81111561081557600080fd5b61082184828501610745565b91505092915050565b61083381610c92565b82525050565b600061084482610be1565b61084e8185610bf7565b935061085e818560208601610cef565b61086781610de1565b840191505092915050565b600061087f602983610bf7565b91507f596f75206861766520696e73756666696369656e742062616c616e636520746f60008301527f20776974686472617700000000000000000000000000000000000000000000006020830152604082019050919050565b60006108e5603583610bf7565b91507f596f75206d75737420626520746865206f776e6572206f66207468652062616e60008301527f6b20746f2073656520616c6c2062616c616e63657300000000000000000000006020830152604082019050919050565b600061094b600f83610bf7565b91507f5472616e73666572204661696c656400000000000000000000000000000000006000830152602082019050919050565b600061098b600083610bec565b9150600082019050919050565b60006109a5603183610bf7565b91507f596f75206d75737420626520746865206f776e657220746f207365742074686560008301527f206e616d65206f66207468652062616e6b0000000000000000000000000000006020830152604082019050919050565b6000610a0b602883610bf7565b91507f596f75206e65656420746f206465706f73697420736f6d6520616d6f756e742060008301527f6f66206d6f6e65790000000000000000000000000000000000000000000000006020830152604082019050919050565b610a6d81610cd6565b82525050565b6000610a7e8261097e565b9150819050919050565b6000602082019050610a9d600083018461082a565b92915050565b60006020820190508181036000830152610abd8184610839565b905092915050565b60006020820190508181036000830152610ade81610872565b9050919050565b60006020820190508181036000830152610afe816108d8565b9050919050565b60006020820190508181036000830152610b1e8161093e565b9050919050565b60006020820190508181036000830152610b3e81610998565b9050919050565b60006020820190508181036000830152610b5e816109fe565b9050919050565b6000602082019050610b7a6000830184610a64565b92915050565b6000604051905081810181811067ffffffffffffffff82111715610ba757610ba6610db2565b5b8060405250919050565b600067ffffffffffffffff821115610bcc57610bcb610db2565b5b601f19601f8301169050602081019050919050565b600081519050919050565b600081905092915050565b600082825260208201905092915050565b6000610c1382610cd6565b9150610c1e83610cd6565b9250827fffffffffffffffffffffffffffffffffffffffffffffffffffffffffffffffff03821115610c5357610c52610d54565b5b828201905092915050565b6000610c6982610cd6565b9150610c7483610cd6565b925082821015610c8757610c86610d54565b5b828203905092915050565b6000610c9d82610cb6565b9050919050565b6000610caf82610cb6565b9050919050565b600073ffffffffffffffffffffffffffffffffffffffff82169050919050565b6000819050919050565b82818337600083830152505050565b60005b83811015610d0d578082015181840152602081019050610cf2565b83811115610d1c576000848401525b50505050565b60006002820490506001821680610d3a57607f821691505b60208210811415610d4e57610d4d610d83565b5b50919050565b7f4e487b7100000000000000000000000000000000000000000000000000000000600052601160045260246000fd5b7f4e487b7100000000000000000000000000000000000000000000000000000000600052602260045260246000fd5b7f4e487b7100000000000000000000000000000000000000000000000000000000600052604160045260246000fd5b6000601f19601f8301169050919050565b610dfb81610c92565b8114610e0657600080fd5b50565b610e1281610ca4565b8114610e1d57600080fd5b50565b610e2981610cd6565b8114610e3457600080fd5b5056fea26469706673582212202ad772cb704b7dd2ea9d120f1d46d0f4991a460d39ffe518f9b22888fc4db9a864736f6c63430008000033",
  "linkReferences": {},
  "deployedLinkReferences": {}
}